{
  "contractName": "Coin",
  "abi": [
    {
      "inputs": [],
      "payable": false,
      "stateMutability": "nonpayable",
      "type": "constructor"
    },
    {
      "anonymous": false,
      "inputs": [
        {
          "indexed": false,
          "internalType": "address",
          "name": "from",
          "type": "address"
        },
        {
          "indexed": false,
          "internalType": "address",
          "name": "to",
          "type": "address"
        },
        {
          "indexed": false,
          "internalType": "uint256",
          "name": "amout",
          "type": "uint256"
        }
      ],
      "name": "Sent",
      "type": "event"
    },
    {
      "constant": true,
      "inputs": [
        {
          "internalType": "address",
          "name": "",
          "type": "address"
        }
      ],
      "name": "balances",
      "outputs": [
        {
          "internalType": "uint256",
          "name": "",
          "type": "uint256"
        }
      ],
      "payable": false,
      "stateMutability": "view",
      "type": "function"
    },
    {
      "constant": true,
      "inputs": [],
      "name": "minter",
      "outputs": [
        {
          "internalType": "address",
          "name": "",
          "type": "address"
        }
      ],
      "payable": false,
      "stateMutability": "view",
      "type": "function"
    }
  ],
  "bytecode": "0x608060405234801561001057600080fd5b50336000806101000a81548173ffffffffffffffffffffffffffffffffffffffff021916908373ffffffffffffffffffffffffffffffffffffffff16021790555061014f806100606000396000f3fe608060405234801561001057600080fd5b50600436106100365760003560e01c8063075461721461003b57806327e235e314610085575b600080fd5b6100436100dd565b604051808273ffffffffffffffffffffffffffffffffffffffff1673ffffffffffffffffffffffffffffffffffffffff16815260200191505060405180910390f35b6100c76004803603602081101561009b57600080fd5b81019080803573ffffffffffffffffffffffffffffffffffffffff169060200190929190505050610102565b6040518082815260200191505060405180910390f35b6000809054906101000a900473ffffffffffffffffffffffffffffffffffffffff1681565b6001602052806000526040600020600091509050548156fea265627a7a723158206bf71faf55981bef67f4eb52fb3d833b492b53c497dbc442ebe2444358ce2af064736f6c63430005100032",
  "source": "// SPDX-License-Identifier: GPL-3.0\r\n\r\n// solidity version\r\npragma solidity ^0.5.6;\r\n\r\n// contract X {...} defines contract called X\r\ncontract Coin {\r\n    // \"minter\"is declared address type; address type is 160 bit address in ethereum\r\n    // \"public\" keyword allows its state to be read by another contract.\r\n    address public minter;\r\n\r\n    // \"balances\" which is mapping type is key-value mapping;it has address type key, uint type data value\r\n    // mapping is like hashtable data structure\r\n    // all of uint values initialized 0\r\n    mapping(address => uint256) public balances;\r\n\r\n    // the type that is defined \"event\" is data can be \"listening\" to client. it can transfer information to client as making object of that type as \"emit\" keyword.\r\n    // usage:\r\n    // \" in solidity \"\r\n    // emit Sent(an_address, another_address, 10);\r\n    // \" in Web3.js \"\r\n    // Coin.Sent().watch({}, '', function(err, result) {...});\r\n    event Sent(address from, address to, uint256 amout);\r\n\r\n    // contract function can recieve information of TX that executed the function. and you can access it as msg (valuable)\r\n    // constructor function executes just once when contract is created.\r\n    // the function below this line put the value of msg.sender into minter(state variable) (address of executing account)\r\n    constructor() public {\r\n        minter = msg.sender;\r\n    }\r\n}\r\n",
  "sourcePath": "C:\\Users\\kdkd15\\Desktop\\ssafy_2\\pjt_02\\S05P21D102\\smart_contract_test\\contracts\\test0.sol",
  "compiler": {
    "name": "solc",
    "version": "0.5.16+commit.9c3226ce.Emscripten.clang"
  },
  "schemaVersion": "3.4.3",
  "updatedAt": "2021-09-13T18:59:38.257Z",
  "devdoc": {
    "methods": {}
  },
  "userdoc": {
    "methods": {}
  }
}